:060000000219FD020335A8
:03000B0002008070
:030013000203489D
:03001B000200B030
:03002B00020303CA
:03005B0002035746
:0300730002032263
:10008000C0D075D01018B8CF0408208507B2858677
:100090008AD0D03253A4DFD285C2A98F8E7589AAA7
:1000A000C289C28B758A00D2A8D2AAC228D0D03207
:1000B000C2A8C28E85588BC0D075D008C0E0C0F0F1
:1000C000C2CAA9CCAACDD2CAC3E99559F9EA955AB0
:1000D0007049C3E9955B4043955B503FB8103C784D
:1000E00000A9577D00E2FEC39DC399402E99EC33D1
:1000F000FC08E2FDC39EC399402199EC33FC08E261
:10010000FEC39DC399401499EC33FC08E2FDC39EE5
:10011000C399400799EC33FC088002806AE2FEC371
:100120009DC399406299EB33FB08E2FDC39EC399DE
:10013000405599EB33FB08E2FEC39DC399404899B3
:10014000EB33FB08E2FDC39EC399403B99EB33FBC5
:1001500008E2FEC39DC399402E99EB33FB08E2FDF4
:10016000C39EC399402199EB33FB08E2FEC39DC3B4
:1001700099401499EB33FB08E2FDC39EC3994007F5
:1001800099EB33FB08801E0530E53070021530C353
:10019000E5309432400AD225755C00755D0041F36C
:1001A00075310A41F3E2FEC39DC39940DA99EA33FF
:1001B000FA08E2FDC39EC39940CD99EA33FA08E2FA
:1001C000FEC39DC39940C099EA33FA08E2FDC39E7D
:1001D000C39940B399EA33FA08EBC46B6C6A3027D1
:1001E00001F4540F70A1C3EBF4FA9460FBECF454E7
:1001F0000F9400FC5018EA7C007B00600CC3135085
:1002000007B55C05055D8006E4F55C755D00302290
:100210001BC3EB94D0F5F0EC94074003ABF0FC303B
:100220002101B39226C3EB33FBEC33FCEB54F04CCF
:10023000C475F00584FAEC13FCEB132AFBEC3400D4
:10024000FC30E3047BFF7C07201C27301124EC707A
:100250000C798187F0C3EB95F05002ABF0E5376085
:100260001175F028A42BFBEC3400FC30E3047BFF79
:100270007C07EB54F84CC423F97007EB7004D225CB
:100280008005753200C225E53060021530C3E54DAA
:10029000FD954E4002AD4EC3ED995008ED75F00846
:1002A000A4FBACF0C3EC13F45403FAEB13F4F9C35E
:1002B000E9940FFBEA9400FC5005E4FBFC800DC3BD
:1002C000EB9550EC95514004AB50AC5189FB8AFC46
:1002D0008BE98CEA75310A302719302816758E01A2
:1002E0007589A2D28543A420780085648AC28DD204
:1002F000A980097800758A00D2A8D2AAD0F0D0E0EF
:10030000D0D032C0E0C2CF053CD223E5317004D258
:100310002580021531302507E5320460020532D010
:10032000E032C2AF53E67F53917F7592FA7593FF27
:10033000C218D2AF32C0E0E58A85588BC0D075D0E4
:1003400008F208D0D0D0E032C2AAD28EC2CA85CC80
:100350005985CD5AD2CA32327A007901801E7A008C
:10036000790580187A00790A80127A007964800C05
:100370007A0079C880067A0079FA8000090A800933
:10038000781874FFD5E0FDD8F9D9F5DAF3227A426E
:100390007B3580247A2D7B4D801E7A267B5C8018ED
:1003A0007A197B8C80127A147BAF800C7A427B1E88
:1003B00080067A2D7B2C8000E5547001227902E4BE
:1003C000C283D5E0FDD282D5E0FDC282D5E0FDD268
:1003D00083D5E0FDE920E002D28030E002D287E55B
:1003E00054D5E0FDE920E002C28030E002C287740B
:1003F00096D5E0FDD9C9EA78C8D8FED5E0F9DBBDCD
:10040000C28322718E7194719A2271B2718E22719F
:100410009A7194718E2271B271AC2279998754B815
:100420000104718E8017B8020471948010B803041F
:10043000719A8009B8040471A0800271A679988726
:100440005422901A70E493F4601D7C3E901A74E478
:1004500093A3FB6012E493FA600471B88006EBF991
:100460007A00717CA3DCE82278A5E6F954037000D9
:10047000E9540C7000E954307000E954C070002257
:10048000C280C282C287C281C283C29075D4FF7506
:10049000D5FF22201E32A84F20102A78FFE53B60AE
:1004A00024E543602074FF301102747F8543F0849B
:1004B000853BF0A4F8C5F06004754EFF22C3E895B3
:1004C0004F5002A84F884E22C3E54294A0E54394C2
:1004D00000E54E5003148001046002F54E22102303
:1004E00001220567E5675407600122E56720E335CF
:1004F000E55260267553FFE5BE601FE5BDC395520A
:1005000040187553C8940440117553969404400ADA
:1005100075536494044003755332202401228538B6
:100520006575660C22E552600FC3E54D9553600872
:100530004004154D8002054D302473E5675438B4EE
:100540000829C3E53994785003E4800475F00984E0
:10055000A21392E7A21492E6A21592E5C213C21466
:10056000C215F56575660E75E89022B4180A7565B2
:100570008875660875E89022B4280A7565AA7566BC
:100580000A75E8902278A6B6010DE5BE7003E480F6
:1005900018E5BD94148012E5BE700AE5BDC394EB66
:1005A0005007E48004E5BD2414F56575660275E81E
:1005B00090227542007543F022C2AFC2CAA8CCA9EE
:1005C000CDAA3C30CF010AD2CAD2AFC3EA13FAE9AE
:1005D00013F9E813F8201014C3E8953D883DF8E9B5
:1005E000953E893E547FF9301E36C1D3AB3DAC3EBB
:1005F000AD3F883D893E8A3FC3E89BE99CEA9D5414
:100600007F60087542FF7543FFC1A2AE40AF418BCA
:10061000408C41C3E89EF8E99FF9AA42AB438011A0
:10062000AA42AB43C3EB9404404894044013201106
:1006300026C3EB13FDEA13FCC3ED13FDEC13FC80A2
:100640004AEBC423FCEAC423541F4CFC7D00C3E9DD
:1006500013F9E813F88034EBC423FC541FFDEC5469
:10066000E0FCEAC423541F4CFCC3E913F9E813F877
:100670008019EBC4FCEAC4540F4CFC7D00C3E913A1
:10068000F9E813F8C3E913F9E813F8C3EA9CFAEBA5
:100690009DFBEA28F542EB39F54350067542FF759C
:1006A00043FFC3E54394025002D21EE543C4FA540B
:1006B0000FFBEA54F0FAE542C4540F4AFAC3EA9435
:1006C00002FAEB9400FB40057048EA70457A017B22
:1006D00000803FAA42AB43EBC4FCEAC4540F4CFC7D
:1006E000C3EA9CFAEB9400FBE80303543F2AFAEBBD
:1006F0003400FB8A428B43C394024002C21EEBC407
:10070000FE7B00EAC4540F4EC39402FA400270020A
:100710007A01202806301808120B1A30180280FBC4
:10072000854992854A93D21843E6807892E6FFC3C2
:10073000E49AF8E49BF9C3E833F8E933F9201E7F23
:100740003010047F038015C3E5389482400E0F9467
:100750001E40010FC3EF940640027F05E8FAE9FB53
:10076000D3E913FDE813FC8C478D488849894AC3B7
:10077000EF9403602BEF20E00CE82CF8E93DF9EC56
:10078000FAEDFB800BE8D338F8E939F97AFF7BFF03
:10079000C3EF9403400A8A4B8B4C884589468050AE
:1007A000884B894C8A458B46301045754BF0754C0B
:1007B000FF7547F07548FF7549F0754AFF8031E8CD
:1007C000FAD313FC8C478849C3EF9403601EEF20D3
:1007D000E007E82CF8ECFA8007E8282401F87AFF13
:1007E000C3EF940340068A4B88458004884B8A45B2
:1007F000202806301808120B1A30180280FB7535B5
:1008000002D21843E68030112DA842A943C3E91350
:10081000F9E813F8301004E92440F9C2AF53E67F39
:10082000759100C3E498F594E499F595759104D217
:100830001843E680D2AF2275F000301D0E75F040EF
:10084000800975F040301D0375F000D21975440021
:100850007A027B02201E1D301102C2193010067A66
:10086000367B36800F7B28E543700104FAC3942859
:1008700040027A28201810E544600C301003D5356A
:1008800004D21A806611010544E5BF5440B5F00D4D
:10089000E53460BC2019B9DADBC21A804E20100B97
:1008A0002019110AC3EA9B40CB80A50AC3EA9B40EA
:1008B000011A80C0C21953E67F759100301E117570
:1008C00094007595F0759104D21843E680020850A3
:1008D000E5437EFFC3334009C3334005C3334001C2
:1008E000FEC3E49E759400F59580DAC2AF53E67FAF
:1008F000854592854693759100854B94854C9575F9
:100900009104D21843E680D2AF201018301A172075
:100910001114201D1120190EC2AF1204801581156B
:100920008102128B053422E53875F007A4301904D2
:1009300005F0D213A2F013A2F113A2F213F538C3FB
:1009400094785003753878C3E53895394003853875
:1009500039C3E538953A400ED214C280C282C287AC
:1009600075D4FF75D5FF202805301807711A301887
:100970000280FB854792854893D21843E680222067
:100980001212C2AFC283D28175D47F75D5FED2AFA9
:1009900075AA5322C2AFC283D29075D4FC75D5FF1D
:1009A000D2AF75AA5322201212C2AFC28775D4F3F8
:1009B00075D5FFD281D2AF75AA6322C2AFC280754E
:1009C000D4F375D5FFD290D2AF75AA43222012126C
:1009D000C2AFC281D29075D4F375D5FFD2AF75AADC
:1009E0004322C2AFC290D28175D4F375D5FFD2AF86
:1009F00075AA6322201212C2AFC28275D4FC75D5CB
:100A0000FFD290D2AF75AA5322C2AFC28275D47FF3
:100A100075D5FED281D2AF75AA5322201212C2AF71
:100A2000C290D28375D4FC75D5FFD2AF75AA63226C
:100A3000C2AFC281D28375D47F75D5FED2AF75AAFD
:100A40004322201212C2AFC28075D47F75D5FED268
:100A500083D2AF75AA4322C2AFC28775D4FC75D5C5
:100A6000FFD283D2AF75AA63227432A285400320DD
:100A700085F750033085F2D5E0F3922722E55C70CC
:100A80000122F8C39406500FC2AF12048012041B57
:100A9000120370D2AF807CC3E55D9406407BB8073B
:100AA00004C221806EB80804D2218067B80904C24C
:100AB000228060B80A04D2228059B80D0A756500F8
:100AC00075660ED224804CB80E0A7565FF75660EE9
:100AD000C224803FB8140C7988E714A2E09221C2A6
:100AE0002A8030B8150D7988E714A2E0B39221D29C
:100AF0002A8020B80C1DE4A22192E0A22292E104F7
:100B00007988F77555A57556F1B18F7555007556ED
:100B100000D2AF755C00755D0022C0D075D010BEEC
:100B20000039E566702EC2AFE542854327D2AFA2F9
:100B30003813F9A2391329FAE52703C2E7F903C2EA
:100B4000E739FBE527232354FCFCC3EA9CF526EB9D
:100B50009400F5270E201803D0D022BE0124E566AC
:100B60007010E527705DE526701175270F7526FF5B
:100B700080098565268566277566000E201803D0D6
:100B8000D022BE0215E526C465266527F478D0A6D6
:100B90005E91400E201803D0D022BE030BE52691B3
:100BA000400E201803D0D022BE040CE526C491408C
:100BB0000E201803D0D022E5279140087E00D0D027
:100BC000D2282220E71620E61D20E52720E4342045
:100BD000E34120E25020E15CE526809FA23733F517
:100BE0002675270F8095A23733A23633F526752751
:100BF0000D8088A23733A23633A23533F526752708
:100C00000B617BE52654F0C23C4527C4F5267527C9
:100C100009617BE526A23813A23913A23A13F526FF
:100C2000752707617BE526A23813A23913F52675CF
:100C30002705617BE526A23813F526752703617B1E
:100C4000540F23900C477381678171817E818F815E
:100C50009981A681B081C481D181E581EC81FDA11A
:100C600007A11EA128A13C08A66008A65E08A65EF2
:100C70002208A65E08A65F08A65E08A65E2286F089
:100C8000E55FB5F002E560F608A66008A65E2208FA
:100C9000A65E08A66008A65E2208A65F08A65E08F3
:100CA000A65E08A65E2208A65F08A65F08A65E22CA
:100CB00086F0E55FB5F002E560F608A65E08A65F7F
:100CC00008A65E2208A65E08A65E08A65F08A65EC5
:100CD0002286F0E55FB5F002E560F608A65F08A69B
:100CE0005E08A65E2208A66008A65F2286F0E55F81
:100CF000B5F002E560F608A65F08A65F2208A65ECA
:100D000008A65F08A65F2286F0E55FB5F002E56001
:100D1000F608A65E08A65E08A65E08A65E2208A6DD
:100D20005F08A65E08A65F2286F0E55FB5F002E5E3
:100D300060F608A65E08A65E08A65F2208A65E0802
:100D4000A65E08A65E08A65F22901A0D7820B1CF95
:100D5000E520B4550AA3B1CFE520B4AA02801275EC
:100D600055A57556F1D156B18F7555007556008051
:100D70001D901A0378807B0AB1CFA308DBFA901A82
:100D80000F788C7B1CB1CFA308DBFA901A2B22C200
:100D9000AFD112D134B1EF901A007400B1D4A37462
:100DA00015B1D4A374D0B1D4901A0378807B0AB162
:100DB000D3A308DBFA901A0F788C7B1CB1D3A3085D
:100DC000DBFAD125D147D103901A2B12037022E40C
:100DD00093F622E6438F01538FFDFFC3E583941CF6
:100DE000400122EF8555B78556B7F0538FFE224359
:100DF0008F02438F018555B78556B7901A0DF05372
:100E00008FFC22901A0D7455B1D4901A0E74AAB1A9
:100E1000D4227A3079D07820901A40B1CFE520F7EB
:100E200009A3DAF7227A3079D0901A40E7B1D409D1
:100E3000A3DAF9227A8C79007820901A70B1CFE584
:100E400020F309A3DAF7227A8C7900901A70E3B1C3
:100E5000D409A3DAF922788076FF0876150876019E
:100E60000876FF0876050876FF08760908761808E0
:100E700076010876FF08080876FF0876FF0876FFF7
:100E80000876FF0876FF0876FF0876040876FF08E4
:100E900076FF0876FF0876FF0876FF087628087642
:100EA000500876040876FF0876020876FF0876FF79
:100EB0000876FF0876000876FF0876FF0876FF08B8
:100EC0007600087600087602087600227888E61414
:100ED000A2E19222A2E09221788474509650027688
:100EE000507886740D965002760D863B789CE67598
:100EF0003AFFB40203753AA0B40303753A827552FF
:100F00000078A0E6F9600F78A6B601047453800259
:100F100074282409D9FCF55278988654788DE623F4
:100F200023F95403F551E954FCF550B6FF0375500D
:100F3000FF227555007556007597DE7597AD758162
:100F4000B043FF8075EF0675A900120480758070AC
:100F500075F1AF75A48F75807075D4FF7590FE75AF
:100F6000F20175A5017590FE75D5FF75A60075A7F0
:100F70002075F30075CC0175A70075E34075E2029A
:100F8000120480E4F8F6D8FDD156B149D1CCC2AFF5
:100F900012036A12044212046812036AC2AF755542
:100FA0000075560012048075A91375A71075C1004D
:100FB00075A700780979007A0030850CDAFBD9F939
:100FC000D8F712040A021C0030290E12040312037F
:100FD00076120376120376C229758851758E0175D3
:100FE00089AA758C00758D0075C80475910475D833
:100FF0004075D90875F782759E0775960275DA42B5
:1010000075DB4275BF8075AB0078A6B6010575D15A
:101010001C800375D10C75BCB975BB1075E8807563
:10102000B201120358120A6975E4D530270375E43A
:101030005DC213C214C215C228C22475A82D75E65C
:101040008075B803D2AF758E0C75588075571075C2
:101050005B50755EF7755FE77560D67564E1756125
:10106000EB7562CA7563A975300A12036AE53060D0
:101070002B7558C0755708755B28755EFF755FF74F
:101080007560EF7564E17561FB7562EB7563DA7528
:10109000300A12036AE5306003020F9CC0D075D09D
:1010A00010AF8ED0D0D229753700C2AF1203ACD2A8
:1010B000AFC3E532940A40F9C2AF1203B2D2AFE433
:1010C000F542F543F55CF55DF533F53CC3E53C943D
:1010D0005E4033753C000533789AE678141460124C
:1010E000782814600D786414600878C8146003755B
:1010F0003300C3E53398400E15337804C2AF1204B1
:101100008012041BD2AF202806120B1A1204DE3004
:10111000250CE5317003020F9C120A7D80AE12038C
:101120006A2025A878A7B601082024051204168095
:101130009BC2AF120480E47522007523007538004D
:101140007539007566007984874F854F4E854F4D00
:10115000854F5375A71075C13075A70075A903C3D6
:10116000E55833F558C3E55B33F55BC3E55733F515
:1011700057E55EC561F55EE55FC562F55FE560C593
:1011800063F56075643CA2219212302204A226927B
:1011900012D210D21175340075360C120A1B120AC5
:1011A000421205B21205B91205B21205B91205B202
:1011B000D2AF12084212092712097F1205B912088C
:1011C000371204931209271209A61205B912084210
:1011D0001209271209CD1205B91208371209271270
:1011E00009F41205B9120842120927120A1B120546
:1011F000B9120837120927120A421205B91204DE81
:10120000301135301014854F4D854F4EC3E5349461
:1012100018500530259C8078C210201D1BE536141F
:10122000600AF53630258B2022888064C211754D06
:10123000FF7553FFD21C21B2753700D21B30251326
:1012400020220C79A4E76007C3E53294035041E5FE
:1012500031603D202209C3E54394F0503321B22090
:101260001D1220120520260580EC2026E9D21D85BE
:101270004F4E21D9854F4EC3E5439440400BC21DCC
:10128000A2269212D21175361221B2201B02053706
:10129000C2AF12048075220075230075A91375A7CB
:1012A0001075C10075A700D3E55813F558C3E55B69
:1012B00013F55BC3E55713F557E55EC561F55EE5CC
:1012C0005FC562F55FE560C563F5607564E1202583
:1012D00020D215C3E5379403500612036A02113178
:1012E000D2AF202A02C224C2AF12040FD2AF021022
:1012F0009CD2AF202A02C22475370078A4E660068B
:09130000D281D283D2900210BF09
:1019FD00020F320015D0FF1501FF05FF091801FF79
:101A0D0055AAFFFFFFFFFFFF04FFFFFFFFFF285059
:0F1A1D0004FF02FFFFFF00FFFFFF00000200FFBA
:101A400023585F485F31352320202020202020208C
:101A500023424C48454C492445464D3842323123B7
:101A6000426C75656A617920282E3029202020205B
:101A7000023A042034420D00452D0D0034420D0081
:0B1A80004E27D300452DD0193419006B
:101C0000C2AFC2D37597DE7597AD7581C075A90057
:101C100043FF80752438752503B1DB7529A5752A26
:101C2000F143F12053A4DFD28575D4FF75E3407DE5
:101C3000FA780379E67C10752200752300901DE880
:101C40007B0675249875250130850281482085081A
:101C5000D8FBD9F9DCF781BA308508D8FBD9F9DC93
:101C6000F781BAB19BE493A3C39A6004DDC381BA40
:101C7000DBDBB18D600281317B08E493FAA3B16EA6
:101C8000DBF87A30B16E752200752300B18DEAFC65
:101C9000EBFDC3ED94FE400EB18D8A278B28ED300D
:101CA000E0048A828B83B18D7AC270D8C3ED94FE32
:101CB000601950CEBD0029EC600F7520007521FF22
:101CC000752900752A000200008100A827A92808AC
:101CD00009D804D90281DDB191EAF281D10D81A642
:101CE000C3ED94035051EDA2E092007AC5C3E582A2
:101CF0009400E583941C508C200010438F02438F86
:101D0000018529B7852AB7F0300027A827A9280818
:101D100009438F01538FFDD804D902A132C3E58353
:101D2000941C4003A3A117E28529B7852AB7F0A325
:101D3000A117538FFC81827AC1BD030CE493A3FAEF
:101D4000B152DCF8B14A81828184AA22AB23B16E00
:101D5000EBFAEA6222752608C3E52313F523E52290
:101D600013F52250066323A0632201D526EAB1DBD6
:101D7000B1DB75260AEAF4200102D285300102C2E5
:101D800085B1DBC3134002C201D526EB22B191EA33
:101D9000FB208502A191308502A196752608AE240C
:101DA000AF25C3EF13FFEE13FEB1DFB1DBC3EA13C0
:101DB0003085024480FA30E703632201C3E5231330
:101DC000F523E52213F52250066323A0632201D5F3
:101DD00026D9E52265236523F52222AE24AF250E00
:101DE0000FDEFEDFFCD20122424C48656C693437BD
:061DF0003164E8B20601B7
:00000001FF
